:100000000C942A000C94BC090C94E9090C94470048
:100010000C9447000C94AC0A0C9447000C944700D5
:100020000C9447000C9447000C9447000C94470034
:100030000C9447000C9447000C9447000C94470024
:100040000C9447000C9447000C9447000C94470014
:100050000C94470011241FBECFE5D8E0DEBFCDBF12
:1000600011E0A0E6B0E0EEE5F9E102C005900D92E6
:10007000AC38B107D9F711E0ACE8B1E001C01D928E
:10008000A43BB107E1F70E94AF080C94AD0C0C94AF
:100090000000EF92FF920F931F937B018C0120E0F1
:1000A00030E040E05FE40E94C50388238CF0C80183
:1000B000B70120E030E040E05FE40E94C1010E940F
:1000C00053049B01AC01205030404040504806C0D2
:1000D000C801B7010E9453049B01AC01B901CA01D8
:1000E0001F910F91FF90EF900895A0E0B0E0EBE733
:1000F000F0E00C94760CDC012B01FA019C9192301B
:1001000008F439C1EB018881823008F433C194309E
:1001100069F4843009F02FC111969C91119789815F
:10012000981709F428C1A0E6B0E025C1843009F48D
:1001300021C18230A9F4923009F01DC19A01AD01AC
:1001400088E0EA010990AE01E90109929E0181501F
:10015000C1F7E201898111969C918923818308C1AD
:10016000923009F407C112962D903C901397EB0141
:100170008A819B811496AD90BD90CD90DC901797AD
:10018000EC80FD800E811F819101281B390BB90184
:1001900037FF04C066277727621B730B6032710537
:1001A0000CF061C0121613066CF537014801062EDB
:1001B00004C096948794779467940A94D2F721E0C8
:1001C00030E040E050E004C0220F331F441F551FB1
:1001D0006A95D2F721503040404050402E213F21B7
:1001E00040235123211531054105510521F021E01E
:1001F00030E040E050E079018A01E628F72808293C
:1002000019293CC0232BD1F1260E371E350146019A
:10021000062E04C096948794779467940A94D2F734
:1002200021E030E040E050E004C0220F331F441FC3
:10023000551F6A95D2F721503040404050402A2146
:100240003B214C215D21211531054105510521F04E
:1002500021E030E040E050E059016A01A628B728CB
:10026000C828D9280BC0821593052CF01C01AA249C
:10027000BB24650103C0EE24FF24870111969C91E5
:10028000D20111968C91981709F445C0992339F041
:10029000A80197012A193B094C095D0906C0A6016E
:1002A00095012E193F09400B510B57FD08C01182D3
:1002B0003382228224833583468357831DC081E0A5
:1002C00081833382228288279927DC01821B930B4A
:1002D000A40BB50B84839583A683B7830DC0220F2F
:1002E000331F441F551F24833583468357838281E0
:1002F000938101979383828324813581468157813D
:10030000DA01C9010197A109B1098F5F9F4FAF4F72
:10031000BF4328F30BC0918333822282EA0CFB1C7B
:100320000C1D1D1DE482F5820683178383E0808304
:10033000248135814681578157FF1AC0C901AA27F8
:1003400097FDA095BA2F81709070A070B0705695EF
:10035000479537952795822B932BA42BB52B848318
:100360009583A683B7838281938101969383828349
:10037000DF0101C0D201CD01CDB7DEB7E2E10C94BF
:10038000920CA0E2B0E0E7ECF1E00C94820C6983FF
:100390007A838B839C832D833E834F835887E9E048
:1003A000EE2EF12CEC0EFD1ECE010196B7010E943F
:1003B00044068E010F5E1F4FCE010596B8010E94C4
:1003C00044068A8991E089278A8BC701B801AE016A
:1003D000475E5F4F0E9475000E946F05A096E6E0A1
:1003E0000C949E0CA0E2B0E0E8EFF1E00C94820CDB
:1003F00069837A838B839C832D833E834F835887C5
:10040000F9E0EF2EF12CEC0EFD1ECE010196B701A6
:100410000E9444068E010F5E1F4FCE010596B80163
:100420000E944406C701B801AE01475E5F4F0E94BB
:1004300075000E946F05A096E6E00C949E0CA0E269
:10044000B0E0E5E2F2E00C94760C69837A838B836A
:100450009C832D833E834F835887CE010196BE0136
:10046000675F7F4F0E944406CE010596BE016F5E16
:100470007F4F0E9444069985923088F089898230A6
:10048000C8F0943019F4823051F404C0843029F457
:10049000923081F480E690E0C6C0923049F420E0CA
:1004A0009A858A89981321E02A87CE010996BBC0D4
:1004B000823049F420E09A858A89981321E02A8BBA
:1004C000CE014196B0C02D843E844F8458886D88FB
:1004D0007E888F88988CEE24FF248701AA24BB2471
:1004E000650140E050E060E070E0E0E0F0E0C10174
:1004F00081709070892BE9F0E60CF71C081D191D1E
:100500009A01AB012A0D3B1D4C1D5D1D80E090E062
:10051000A0E0B0E0E614F7040805190520F481E036
:1005200090E0A0E0B0E0BA01A901480F591F6A1F8E
:100530007B1FAA0CBB1CCC1CDD1C97FE08C081E0F5
:1005400090E0A0E0B0E0A82AB92ACA2ADB2A3196B6
:10055000E032F10549F0660C771C881C991C569412
:10056000479437942794C3CFFA85EA892B893C892D
:100570008B859C85280F391F2E5F3F4F17C0CA01FE
:1005800081709070892B61F016950795F794E79428
:1005900080E090E0A0E0B0E8E82AF92A0A2B1B2BC3
:1005A00076956795579547952F5F3F4F77FDE7CF36
:1005B0000CC0440F551F661F771F17FD4160EE0CDE
:1005C000FF1C001F111F21503040403090E05907A0
:1005D00090E0690790E4790760F32B8F3C8FDB0193
:1005E000CA018F779070A070B07080349105A1051A
:1005F000B10561F447FD0AC0E114F10401051105DC
:1006000029F0405C5F4F6F4F7F4F40781A8EFE1786
:1006100011F081E08A8F4D8F5E8F6F8F78A383E01A
:10062000898FCE0149960E946F05A096E2E10C9455
:10063000920CA8E1B0E0EFE1F3E00C947E0C69834A
:100640007A838B839C832D833E834F835887B9E0C5
:10065000EB2EF12CEC0EFD1ECE010196B7010E948F
:1006600044068E010F5E1F4FCE010596B8010E9411
:1006700044062985223008F47EC03989323010F4CE
:10068000B8017CC08A859A8989278A87243011F02D
:10069000223031F4231709F06EC060E670E06EC0BE
:1006A000343039F41D861E861F86188A1C861B86E8
:1006B00004C0323021F484E08987B7015FC02B8504
:1006C0003C858B899C89281B390B3C872B87ED84C3
:1006D000FE840F851889AD88BE88CF88D88CEA142F
:1006E000FB040C051D0540F4EE0CFF1C001F111F40
:1006F000215030403C872B8720E030E040E050E044
:1007000080E090E0A0E0B0E460E070E0EA14FB0478
:100710000C051D0540F0282B392B4A2B5B2BEA18C2
:10072000FB080C091D09B695A79597958795EE0CC2
:10073000FF1C001F111F6F5F7F4F6F31710531F775
:10074000DA01C9018F779070A070B0708034910584
:10075000A105B10561F427FD0AC0E114F10401050A
:10076000110529F0205C3F4F4F4F5F4F20782D87B8
:100770003E874F87588BBE01675F7F4FCB010E943A
:100780006F056896EAE00C949A0CA8E1B0E0EBECF7
:10079000F3E00C94820C69837A838B839C832D8392
:1007A0003E834F83588789E0E82EF12CEC0EFD1E26
:1007B000CE010196B7010E9444068E010F5E1F4FC5
:1007C000CE010596B8010E9444068985823040F02A
:1007D0008989823028F0C701B8010E94BC0601C097
:1007E0008FEF6896E6E00C949E0CA8E0B0E0EBEF8B
:1007F000F3E00C947F0C9B01AC0183E08983DA0168
:10080000C9018827B7FD83959927AA27BB27B82E4A
:10081000211531054105510519F482E089833AC05B
:100820008823A9F0203080E0380780E0480780E87E
:10083000580729F460E070E080E09FEC30C0EE24BF
:10084000FF248701E21AF30A040B150B02C0790199
:100850008A018EE1C82ED12CDC82CB82ED82FE8211
:100860000F831887C801B7010E9420050197181649
:10087000190684F4082E04C0EE0CFF1C001F111F83
:100880000A94D2F7ED82FE820F831887C81AD90A1C
:10089000DC82CB82BA82CE0101960E946F05289637
:1008A000E9E00C949B0CACE0B0E0E9E5F4E00C94DA
:1008B000860C69837A838B839C83CE010196BE016B
:1008C0006B5F7F4F0E9444068D81823061F18230E0
:1008D00050F1843021F48E81882351F12EC02F8174
:1008E000388537FD20C06E812F3131051CF066231D
:1008F000F9F023C08EE190E0821B930B29853A85A5
:100900004B855C8504C056954795379527958A9504
:10091000D2F76623B1F050954095309521953F4F21
:100920004F4F5F4F0EC020E030E040E050E009C084
:100930002FEF3FEF4FEF5FE704C020E030E040E0F3
:1009400050E8B901CA012C96E2E00C94A20CA8E090
:10095000B0E0EDEAF4E00C947E0C7B018C016115B3
:1009600071058105910519F482E0898360C083E0F7
:1009700089838EE1C82ED12CDC82CB82ED82FE826F
:100980000F831887C801B7010E942005FC01319729
:10099000F7FF3BC0222733272E1B3F0B570168016F
:1009A000022E04C0D694C794B794A7940A94D2F7A1
:1009B00040E050E060E070E081E090E0A0E0B0E076
:1009C00004C0880F991FAA1FBB1F2A95D2F7019751
:1009D000A109B1098E219F21A023B1230097A10570
:1009E000B10521F041E050E060E070E04A295B2968
:1009F0006C297D294D835E836F8378878EE190E03B
:100A00008E1B9F0B9C838B8312C0309781F00E2E20
:100A100004C0EE0CFF1C001F111F0A94D2F7ED82D8
:100A2000FE820F831887CE1ADF0ADC82CB821A82FD
:100A3000CE0101960E946F052896EAE00C949A0C6C
:100A4000EF92FF920F931F937B018C0180E0E816D9
:100A500080E0F80681E0080780E0180788F48FEF4F
:100A6000E816F1040105110531F028F088E090E066
:100A7000A0E0B0E017C080E090E0A0E0B0E012C0DD
:100A800080E0E81680E0F80680E0080781E01807BB
:100A900028F088E190E0A0E0B0E004C080E190E0C0
:100AA000A0E0B0E020E230E040E050E0281B390B4D
:100AB0004A0B5B0B04C016950795F794E7948A954B
:100AC000D2F7F701E859FF4F8081281B310941090E
:100AD0005109C9011F910F91FF90EF900895DF9286
:100AE000EF92FF920F931F93FC01E480F580068143
:100AF0001781D1808081823048F480E090E0A0E1CD
:100B0000B0E0E82AF92A0A2B1B2BA5C0843009F48F
:100B10009FC0823021F4EE24FF24870105C0E11438
:100B2000F1040105110519F4E0E0F0E096C06281DE
:100B300073819FEF623879070CF05BC022E83FEFCA
:100B4000261B370B2A3131052CF020E030E040E045
:100B500050E02AC0B801A701022E04C0769567951F
:100B6000579547950A94D2F781E090E0A0E0B0E075
:100B700004C0880F991FAA1FBB1F2A95D2F701979F
:100B8000A109B1098E219F21A023B1230097A105BE
:100B9000B10521F081E090E0A0E0B0E09A01AB0166
:100BA000282B392B4A2B5B2BDA01C9018F779070E8
:100BB000A070B07080349105A105B10539F427FF0C
:100BC00009C0205C3F4F4F4F5F4F04C0215C3F4F37
:100BD0004F4F5F4FE0E0F0E02030A0E03A07A0E0A8
:100BE0004A07A0E45A0710F0E1E0F0E079018A0139
:100BF00027C06038710564F5FB01E158FF4FD8014B
:100C0000C7018F779070A070B07080349105A105F6
:100C1000B10539F4E7FE0DC080E490E0A0E0B0E05B
:100C200004C08FE390E0A0E0B0E0E80EF91E0A1FD8
:100C30001B1F17FF05C016950795F794E79431968B
:100C400087E016950795F794E7948A95D1F705C044
:100C5000EE24FF248701EFEFF0E06E2F6795662703
:100C60006795902F9F77D794DD24D7948E2F869504
:100C7000492F462B582F5D29B701CA011F910F91AB
:100C8000FF90EF90DF900895FC01DB0140815181DE
:100C90002281622F6F7770E0221F2227221F93810B
:100CA000892F880F822B282F30E0991F9927991FB1
:100CB00011969C93119721153105A9F54115510500
:100CC0006105710511F482E037C082E89FEF139649
:100CD0009C938E9312979A01AB0167E0220F331F0A
:100CE000441F551F6A95D1F783E08C930DC0220FE6
:100CF000331F441F551F12968D919C911397019796
:100D000013969C938E931297203080E0380780E0F2
:100D1000480780E4580758F314962D933D934D935C
:100D20005C93179708952F3F310579F441155105CC
:100D30006105710519F484E08C93089564FF03C084
:100D400081E08C9312C01C9210C02F573040139634
:100D50003C932E93129783E08C9387E0440F551FAA
:100D6000661F771F8A95D1F7706414964D935D9333
:100D70006D937C93179708951F93DC01FB019C9161
:100D8000923008F447C08081823008F443C0943028
:100D900051F411961C91843099F58181682F70E08F
:100DA000611B71093FC0843021F0923031F48230F0
:100DB000B9F18181882389F12DC011961C91119779
:100DC0008230F1F081811817D9F412962D913C915F
:100DD0001397828193818217930794F0281739071C
:100DE000BCF014968D919D910D90BC91A02D248105
:100DF000358146815781281739074A075B0718F460
:100E0000112341F00AC082179307A407B50740F4E5
:100E1000112319F061E070E005C06FEF7FEF02C0B1
:100E200060E070E0CB011F910895DF93CF93CDB7C1
:100E3000DEB7A7E2B0E0E7E2F0E080818F7B8C9341
:100E4000A7E2B0E0E7E2F0E080818F778C93A6E242
:100E5000B0E0E6E2F0E080818E7F8C93A6E2B0E025
:100E6000E6E2F0E080818D7F8C93A6E2B0E0E6E2DE
:100E7000F0E080818B7F8C93A6E2B0E0E6E2F0E0C8
:100E8000808180688C93CF91DF910895DF93CF9319
:100E90000F92CDB7DEB78983A7E2B0E0E7E2F0E0DA
:100EA0008081982F907E8981892B8C93A6E2B0E077
:100EB000E6E2F0E0808180648C93E6E2F0E08081FD
:100EC00082958F70882F90E0817090700097A9F3C1
:100ED000A6E2B0E0E6E2F0E0808180618C93E4E29B
:100EE000F0E0808191810F90CF91DF910895DF93A1
:100EF000CF9300D00F92CDB7DEB789836A834B833F
:100F00008981843008F054C08A81883008F050C04C
:100F10008B818F3F29F58981882F90E0880F991F59
:100F2000FC01E859FE4FA081B1818981882F90E0B2
:100F3000880F991FFC01E859FE4F0190F081E02DC8
:100F40008081482F8A81282F30E081E090E0022EB6
:100F500002C0880F991F0A94E2F7842B8C9328C053
:100F60008B81882329F58981882F90E0880F991F2C
:100F7000FC01E859FE4FA081B1818981882F90E062
:100F8000880F991FFC01E859FE4F0190F081E02D78
:100F90008081482F8A81282F30E081E090E0022E66
:100FA00002C0880F991F0A94E2F7809584238C93DE
:100FB0000F900F900F90CF91DF910895DF93CF9313
:100FC00000D00F92CDB7DEB78A836B838A818430DD
:100FD000F0F48B818830D8F48A81882F90E0880FD4
:100FE000991FFC01E059FE4F0190F081E02D8081B6
:100FF000282F30E08B81882F90E0A90102C0559501
:1010000047958A95E2F7CA018170898302C08FEF04
:10101000898389810F900F900F90CF91DF91089570
:10102000DF93CF9300D00F92CDB7DEB789836A8369
:101030004B838981843008F054C08A81883008F05D
:1010400050C08B818F3F29F58981882F90E0880FD0
:10105000991FFC01E858FE4FA081B1818981882F3A
:1010600090E0880F991FFC01E858FE4F0190F08135
:10107000E02D8081482F8A81282F30E081E090E0A8
:10108000022E02C0880F991F0A94E2F7842B8C93DA
:1010900028C08B81882329F58981882F90E0880FCB
:1010A000991FFC01E858FE4FA081B1818981882FEA
:1010B00090E0880F991FFC01E858FE4F0190F081E5
:1010C000E02D8081482F8A81282F30E081E090E058
:1010D000022E02C0880F991F0A94E2F7809584239C
:1010E0008C930F900F900F90CF91DF910895DF9325
:1010F000CF9300D0CDB7DEB789836A8389818430EE
:1011000068F48981882F90E0880F991FFC01E858C6
:10111000FE4F0190F081E02D8A8180830F900F9027
:10112000CF91DF910895DF93CF9300D0CDB7DEB795
:1011300089836A838981843068F48981882F90E06B
:10114000880F991FFC01E859FE4F0190F081E02DB6
:101150008A8180830F900F90CF91DF9108950F9334
:101160001F93DF93CF93CDB7DEB780E060E040E020
:101170000E94100881E063E04FEF0E94100881E0B8
:1011800063E040E00E94770783E062E040E00E9475
:10119000100883E062E04FEF0E94770783E063E08E
:1011A00040E00E94100883E063E04FEF0E94770761
:1011B00083E060E040E00E94100883E060E04FEFD1
:1011C0000E94770782E060E04FEF0E94100882E003
:1011D00060E04FEF0E9477070E941507A5E5B0E099
:1011E000E5E5F0E080818A608C93ABE5B0E0EBE56B
:1011F000F0E08081806C8C93A3E5B0E0E3E5F0E063
:10120000808180648C93A3E5B0E0E3E5F0E0808129
:1012100088608C93A3E5B0E0E3E5F0E080818F7E09
:101220008C93A3E5B0E0E3E5F0E0808180628C93ED
:10123000A3E5B0E0E3E5F0E0808181608C93A3E575
:10124000B0E0E3E5F0E0808182608C93A3E5B0E05C
:10125000E3E5F0E080818B7F8C93A5E4B0E0E5E4EA
:10126000F0E080818F7B8C93A5E4B0E0E5E4F0E0D2
:101270008081877F8C93E4E4F0E082EC8083A5E4B6
:10128000B0E0E5E4F0E080818E7F8C93A5E4B0E0EF
:10129000E5E4F0E080818D7F8C93A5E4B0E0E5E4A7
:1012A000F0E0808184608C93A9E5B0E0E9E5F0E0AE
:1012B000808180648C93789480E00E9446079093AC
:1012C000AE018093AD018091AD019091AE01CC0152
:1012D000A0E0B0E024E630E040E050E0BC01CD0109
:1012E0000E94020CDC01CB012FEF33E040E050E024
:1012F000BC01CD010E94400CDA01C901882F90E0A9
:10130000A0E0B0E0BC01CD010E94A704DC01CB014C
:1013100080938C0190938D01A0938E01B0938F01E7
:101320000CE510E080918C0190918D01A0918E01CF
:10133000B0918F01BC01CD0120E030E04FE753E4D4
:101340000E941F02DC01CB01BC01CD010E944900BB
:10135000DC01CB0194E6692F0E94210CF801808307
:1013600083E060E00E94DE078823D1F782E060E03E
:101370004FEF0E947707F4CF1F920F920FB60F9294
:1013800011242F933F934F935F936F937F938F938A
:101390009F93AF93BF93EF93FF93DF93CF93CDB71B
:1013A000DEB782E060E040E00E947707CF91DF91F6
:1013B000FF91EF91BF91AF919F918F917F916F912D
:1013C0005F914F913F912F910F900FBE0F901F9003
:1013D00018951F920F920FB60F9211242F933F93DF
:1013E0004F935F936F937F938F939F93AF93BF932D
:1013F000EF93FF93DF93CF93CDB7DEB78091AB012F
:10140000882349F4E4E4F0E080818093A40181E042
:101410008093AB018EC0E4E4F0E080818093A5016D
:101420009091A5018091A401981748F18091A501A0
:10143000282F30E08091A401882F90E0A901481B5B
:10144000590BCA01AA2797FDA095BA2FBC01CD015F
:101450000E94F503DC01CB01BC01CD0125E63AEA8F
:101460004AEA50E40E941F02DC01CB01BC01CD011D
:101470000E944900DC01CB018093A60132C090910B
:10148000A4018091A501891760F58091A401282FFE
:1014900030E08FEF90E0AC01421B530B9A0180913A
:1014A000A501882F90E0820F931FAA2797FDA09592
:1014B000BA2FBC01CD010E94F503DC01CB01BC01B8
:1014C000CD0125E63AEA4AEA50E40E941F02DC0117
:1014D000CB01BC01CD010E944900DC01CB0180930E
:1014E000A6018091A601282F30E08CE390E0A901AD
:1014F000489F9001499F300D589F300D112480E680
:101500009AEEB9010E942D0CCB01AA2797FDA09558
:10151000BA2FBC01CD010E94F503DC01CB01809301
:10152000A7019093A801A093A901B093AA011092DA
:10153000AB01CF91DF91FF91EF91BF91AF919F915F
:101540008F917F916F915F914F913F912F910F906C
:101550000FBE0F901F9018951F920F920FB60F920B
:101560001124EF92FF920F931F932F933F934F936A
:101570005F936F937F938F939F93AF93BF93EF93FB
:10158000FF93DF93CF93CDB7DEB78091AC018F5F30
:101590008093AC018091AC018A3409F01CC180E0D9
:1015A0000E9446079093AE018093AD018091AD01FA
:1015B0009091AE01CC01A0E0B0E024E630E040E044
:1015C00050E0BC01CD010E94020CDC01CB012FEFE9
:1015D00033E040E050E0BC01CD010E94400CDA0154
:1015E000C901882F90E0A0E0B0E0BC01CD010E94CD
:1015F000A704DC01CB0180938C0190938D01A09313
:101600008E01B0938F018091900190919101A091F2
:101610009201B091930180939C0190939D01A093BE
:101620009E01B0939F0180918C0190918D01A091BA
:101630008E01B0918F012091A7013091A8014091B6
:10164000A9015091AA01BC01CD010E94C101DC0198
:10165000CB018093900190939101A0939201B0935C
:1016600093018091940190919501A0919601B09180
:1016700097012091900130919101409192015091F8
:101680009301BC01CD010E94F201DC01CB018093EA
:10169000940190939501A0939601B0939701809146
:1016A000800190918101A0918201B09183012091EC
:1016B0009001309191014091920150919301BC01B0
:1016C000CD010E941F02DC01CB017C018D018091C4
:1016D000840190918501A0918601B09187012091AC
:1016E0009401309195014091960150919701BC0170
:1016F000CD010E941F02DC01CB019C01AD01C8019C
:10170000B7010E94F201DC01CB017C018D018091C7
:10171000880190918901A0918A01B0918B0120915B
:1017200098013091990140919A0150919B01BC011F
:10173000CD010E941F02DC01CB019C01AD01C8015B
:10174000B7010E94F201DC01CB018093B0019093BC
:10175000B101A093B201B093B3010CE510E0809108
:10176000B0019091B101A091B201B091B301BC015F
:10177000CD0120E030E04FE753E40E941F02DC017E
:10178000CB01BC01CD010E944900DC01CB01882FB7
:1017900090E0AA2797FDA095BA2FBC01CD010E9429
:1017A000F503DC01CB01BC01CD0120E030E048ECC9
:1017B00052E40E941903DC01CB01BC01CD010E945F
:1017C0004900DC01CB01F80180831092AC01E4E414
:1017D000F0E082EC8083CF91DF91FF91EF91BF9198
:1017E000AF919F918F917F916F915F914F913F91B9
:1017F0002F911F910F91FF90EF900F900FBE0F90C0
:101800001F901895629FD001739FF001829FE00D99
:10181000F11D649FE00DF11D929FF00D839FF00D6F
:10182000749FF00D659FF00D9927729FB00DE11D1B
:10183000F91F639FB00DE11DF91FBD01CF011124F8
:101840000895991B79E004C0991F961708F0961B1C
:10185000881F7A95C9F78095089597FB092E07266A
:101860000AD077FD04D02ED006D000201AF470954F
:1018700061957F4F0895F6F7909581959F4F089554
:10188000A1E21A2EAA1BBB1BFD010DC0AA1FBB1F84
:10189000EE1FFF1FA217B307E407F50720F0A21BF6
:1018A000B30BE40BF50B661F771F881F991F1A9463
:1018B00069F760957095809590959B01AC01BD018D
:1018C000CF010895AA1BBB1B51E107C0AA1FBB1F74
:1018D000A617B70710F0A61BB70B881F991F5A95BC
:1018E000A9F780959095BC01CD0108952F923F9264
:1018F0004F925F926F927F928F929F92AF92BF9220
:10190000CF92DF92EF92FF920F931F93CF93DF93CB
:10191000CDB7DEB7CA1BDB0B0FB6F894DEBF0FBE28
:10192000CDBF09942A88398848885F846E847D8475
:101930008C849B84AA84B984C884DF80EE80FD8077
:101940000C811B81AA81B981CE0FD11D0FB6F894ED
:0E195000DEBF0FBECDBFED010895F894FFCFAE
:10195E000000000000000000000102020303030368
:10196E000404040404040404050505050505050521
:10197E000505050505050505060606060606060601
:10198E0006060606060606060606060606060606E9
:10199E0006060606060606060707070707070707D1
:1019AE0007070707070707070707070707070707B9
:1019BE0007070707070707070707070707070707A9
:1019CE000707070707070707070707070707070799
:1019DE000707070707070707080808080808080881
:1019EE000808080808080808080808080808080869
:1019FE000808080808080808080808080808080859
:101A0E000808080808080808080808080808080848
:101A1E000808080808080808080808080808080838
:101A2E000808080808080808080808080808080828
:101A3E000808080808080808080808080808080818
:101A4E000808080808080808080808080808080808
:101A5E0008080808080808083B003800350032005E
:101A6E0039003600330030003A00370034003100C0
:0C1A7E00CDCC4C3FCDCC4C3ECDCCCC3E72
:00000001FF
